{
    "contractName": "ExtraStorage",
    "abi": [
        {
            "inputs": [
                {
                    "internalType": "string",
                    "name": "_name",
                    "type": "string"
                },
                {
                    "internalType": "uint256",
                    "name": "_favoriteNumber",
                    "type": "uint256"
                }
            ],
            "name": "addPerson",
            "outputs": [],
            "stateMutability": "nonpayable",
            "type": "function"
        },
        {
            "inputs": [
                {
                    "internalType": "string",
                    "name": "",
                    "type": "string"
                }
            ],
            "name": "nameToFavoriteNumber",
            "outputs": [
                {
                    "internalType": "uint256",
                    "name": "",
                    "type": "uint256"
                }
            ],
            "stateMutability": "view",
            "type": "function"
        },
        {
            "inputs": [
                {
                    "internalType": "uint256",
                    "name": "",
                    "type": "uint256"
                }
            ],
            "name": "people",
            "outputs": [
                {
                    "internalType": "uint256",
                    "name": "favoriteNumber",
                    "type": "uint256"
                },
                {
                    "internalType": "string",
                    "name": "name",
                    "type": "string"
                }
            ],
            "stateMutability": "view",
            "type": "function"
        },
        {
            "inputs": [],
            "name": "person",
            "outputs": [
                {
                    "internalType": "uint256",
                    "name": "favoriteNumber",
                    "type": "uint256"
                },
                {
                    "internalType": "string",
                    "name": "name",
                    "type": "string"
                }
            ],
            "stateMutability": "view",
            "type": "function"
        },
        {
            "inputs": [],
            "name": "retrieve",
            "outputs": [
                {
                    "internalType": "uint256",
                    "name": "",
                    "type": "uint256"
                }
            ],
            "stateMutability": "view",
            "type": "function"
        },
        {
            "inputs": [
                {
                    "internalType": "uint256",
                    "name": "_favoriteNumber",
                    "type": "uint256"
                }
            ],
            "name": "store",
            "outputs": [],
            "stateMutability": "nonpayable",
            "type": "function"
        }
    ],
    "bytecode": "6008608081815261010060405260c0828152674f6c6179696e6b6160c01b60e05260a0819052600192835590919060029061003a90826100ee565b50505034801561004957600080fd5b506101ad565b634e487b7160e01b600052604160045260246000fd5b600181811c9082168061007957607f821691505b60208210810361009957634e487b7160e01b600052602260045260246000fd5b50919050565b601f8211156100e957600081815260208120601f850160051c810160208610156100c65750805b601f850160051c820191505b818110156100e5578281556001016100d2565b5050505b505050565b81516001600160401b038111156101075761010761004f565b61011b816101158454610065565b8461009f565b602080601f83116001811461015057600084156101385750858301515b600019600386901b1c1916600185901b1785556100e5565b600085815260208120601f198616915b8281101561017f57888601518255948401946001909101908401610160565b508582101561019d5787850151600019600388901b60f8161c191681555b5050505050600190811b01905550565b6105e0806101bc6000396000f3fe608060405234801561001057600080fd5b50600436106100625760003560e01c80632e64cec1146100675780636057361d1461007e5780636f760f411461009357806377ec2b55146100a65780638bab8dd5146100bc5780639e7a13ad146100e7575b600080fd5b6000545b6040519081526020015b60405180910390f35b61009161008c366004610282565b6100fa565b005b6100916100a136600461033e565b61010b565b6100ae6101b6565b6040516100759291906103a7565b61006b6100ca3660046103e1565b805160208183018101805160038252928201919093012091525481565b6100ae6100f5366004610282565b61024d565b61010581600561041e565b60005550565b604080518082019091528181526020810183815260048054600181018255600091909152825160029091027f8a35acfbc15ff81a39ae7d344fd709f28e8600b4aa8c65c6b64bfe7fe36bd19b8101918255915183927f8a35acfbc15ff81a39ae7d344fd709f28e8600b4aa8c65c6b64bfe7fe36bd19c019061018d90826104ce565b505050816003846040516101a1919061058e565b90815260405190819003602001902055505050565b60018054600280549192916101ca90610445565b80601f01602080910402602001604051908101604052809291908181526020018280546101f690610445565b80156102435780601f1061021857610100808354040283529160200191610243565b820191906000526020600020905b81548152906001019060200180831161022657829003601f168201915b5050505050905082565b6004818154811061025d57600080fd5b600091825260209091206002909102018054600182018054919350906101ca90610445565b60006020828403121561029457600080fd5b5035919050565b634e487b7160e01b600052604160045260246000fd5b600082601f8301126102c257600080fd5b813567ffffffffffffffff808211156102dd576102dd61029b565b604051601f8301601f19908116603f011681019082821181831017156103055761030561029b565b8160405283815286602085880101111561031e57600080fd5b836020870160208301376000602085830101528094505050505092915050565b6000806040838503121561035157600080fd5b823567ffffffffffffffff81111561036857600080fd5b610374858286016102b1565b95602094909401359450505050565b60005b8381101561039e578181015183820152602001610386565b50506000910152565b82815260406020820152600082518060408401526103cc816060850160208701610383565b601f01601f1916919091016060019392505050565b6000602082840312156103f357600080fd5b813567ffffffffffffffff81111561040a57600080fd5b610416848285016102b1565b949350505050565b8082018082111561043f57634e487b7160e01b600052601160045260246000fd5b92915050565b600181811c9082168061045957607f821691505b60208210810361047957634e487b7160e01b600052602260045260246000fd5b50919050565b601f8211156104c957600081815260208120601f850160051c810160208610156104a65750805b601f850160051c820191505b818110156104c5578281556001016104b2565b5050505b505050565b815167ffffffffffffffff8111156104e8576104e861029b565b6104fc816104f68454610445565b8461047f565b602080601f83116001811461053157600084156105195750858301515b600019600386901b1c1916600185901b1785556104c5565b600085815260208120601f198616915b8281101561056057888601518255948401946001909101908401610541565b508582101561057e5787850151600019600388901b60f8161c191681555b5050505050600190811b01905550565b600082516105a0818460208701610383565b919091019291505056fea2646970667358221220a9dfc24ba9580d35ede4361188143b6d4d13f857e36ae2ae31f7609c84856e8b64736f6c63430008100033",
    "sourcePath": "c:/Users/Hp Folio/Documents/Coding stuff/StorageFactory/ExtraStorage.sol",
    "compiler": {
        "name": "solc",
        "version": "0.8.16+commit.07a7930e"
    },
    "functionHashes": {
        "addPerson(string,uint256)": "6f760f41",
        "nameToFavoriteNumber(string)": "8bab8dd5",
        "people(uint256)": "9e7a13ad",
        "person()": "77ec2b55",
        "retrieve()": "2e64cec1",
        "store(uint256)": "6057361d"
    },
    "gasEstimates": {
        "creation": {
            "codeDepositCost": "300800",
            "executionCost": "infinite",
            "totalCost": "infinite"
        },
        "external": {
            "addPerson(string,uint256)": "infinite",
            "nameToFavoriteNumber(string)": "infinite",
            "people(uint256)": "infinite",
            "person()": "infinite",
            "retrieve()": "2248",
            "store(uint256)": "22401"
        }
    }
}